{
  "contractName": "UsersContract",
  "abi": [
    {
      "anonymous": false,
      "inputs": [
        {
          "indexed": false,
          "internalType": "address",
          "name": "",
          "type": "address"
        },
        {
          "indexed": false,
          "internalType": "string",
          "name": "",
          "type": "string"
        }
      ],
      "name": "onUserJoined",
      "type": "event"
    },
    {
      "constant": false,
      "inputs": [
        {
          "internalType": "string",
          "name": "name",
          "type": "string"
        },
        {
          "internalType": "string",
          "name": "lastname",
          "type": "string"
        }
      ],
      "name": "join",
      "outputs": [],
      "payable": false,
      "stateMutability": "nonpayable",
      "type": "function"
    },
    {
      "constant": true,
      "inputs": [
        {
          "internalType": "address",
          "name": "addr",
          "type": "address"
        }
      ],
      "name": "getUser",
      "outputs": [
        {
          "internalType": "string",
          "name": "",
          "type": "string"
        },
        {
          "internalType": "string",
          "name": "",
          "type": "string"
        }
      ],
      "payable": false,
      "stateMutability": "view",
      "type": "function"
    },
    {
      "constant": true,
      "inputs": [],
      "name": "totalUsers",
      "outputs": [
        {
          "internalType": "uint256",
          "name": "",
          "type": "uint256"
        }
      ],
      "payable": false,
      "stateMutability": "view",
      "type": "function"
    }
  ],
  "bytecode": "0x608060405234801561001057600080fd5b506108fa806100206000396000f3fe608060405234801561001057600080fd5b50600436106100415760003560e01c806329803b21146100465780636f77926b14610198578063bff1f9e1146102c1575b600080fd5b6101966004803603604081101561005c57600080fd5b810190808035906020019064010000000081111561007957600080fd5b82018360208201111561008b57600080fd5b803590602001918460018302840111640100000000831117156100ad57600080fd5b91908080601f016020809104026020016040519081016040528093929190818152602001838380828437600081840152601f19601f8201169050808301925050505050505091929192908035906020019064010000000081111561011057600080fd5b82018360208201111561012257600080fd5b8035906020019184600183028401116401000000008311171561014457600080fd5b91908080601f016020809104026020016040519081016040528093929190818152602001838380828437600081840152601f19601f8201169050808301925050505050505091929192905050506102df565b005b6101da600480360360208110156101ae57600080fd5b81019080803573ffffffffffffffffffffffffffffffffffffffff1690602001909291905050506105dd565b604051808060200180602001838103835285818151815260200191508051906020019080838360005b8381101561021e578082015181840152602081019050610203565b50505050905090810190601f16801561024b5780820380516001836020036101000a031916815260200191505b50838103825284818151815260200191508051906020019080838360005b83811015610284578082015181840152602081019050610269565b50505050905090810190601f1680156102b15780820380516001836020036101000a031916815260200191505b5094505050505060405180910390f35b6102c96107a3565b6040518082815260200191505060405180910390f35b6102e8336107b0565b156102f257600080fd5b60008060003373ffffffffffffffffffffffffffffffffffffffff1673ffffffffffffffffffffffffffffffffffffffff16815260200190815260200160002090508281600001908051906020019061034c929190610806565b5081816001019080519060200190610365929190610806565b5060018060003373ffffffffffffffffffffffffffffffffffffffff1673ffffffffffffffffffffffffffffffffffffffff16815260200190815260200160002060006101000a81548160ff02191690831515021790555060023390806001815401808255809150509060018203906000526020600020016000909192909190916101000a81548173ffffffffffffffffffffffffffffffffffffffff021916908373ffffffffffffffffffffffffffffffffffffffff160217905550507fcb377c658a30311994ed849c5202a7876366b3353f8a9e009226ccd6411935b33384846040516020018083805190602001908083835b6020831061047d578051825260208201915060208101905060208303925061045a565b6001836020036101000a038019825116818451168082178552505050505050905001807f200000000000000000000000000000000000000000000000000000000000000081525060010182805190602001908083835b602083106104f657805182526020820191506020810190506020830392506104d3565b6001836020036101000a03801982511681845116808217855250505050505090500192505050604051602081830303815290604052604051808373ffffffffffffffffffffffffffffffffffffffff1673ffffffffffffffffffffffffffffffffffffffff16815260200180602001828103825283818151815260200191508051906020019080838360005b8381101561059d578082015181840152602081019050610582565b50505050905090810190601f1680156105ca5780820380516001836020036101000a031916815260200191505b50935050505060405180910390a1505050565b6060806105e9336107b0565b6105f257600080fd5b6105fa610886565b6000808573ffffffffffffffffffffffffffffffffffffffff1673ffffffffffffffffffffffffffffffffffffffff168152602001908152602001600020604051806040016040529081600082018054600181600116156101000203166002900480601f0160208091040260200160405190810160405280929190818152602001828054600181600116156101000203166002900480156106dc5780601f106106b1576101008083540402835291602001916106dc565b820191906000526020600020905b8154815290600101906020018083116106bf57829003601f168201915b50505050508152602001600182018054600181600116156101000203166002900480601f01602080910402602001604051908101604052809291908181526020018280546001816001161561010002031660029004801561077e5780601f106107535761010080835404028352916020019161077e565b820191906000526020600020905b81548152906001019060200180831161076157829003601f168201915b5050505050815250509050806000015181602001518191508090509250925050915091565b6000600280549050905090565b6000600160008373ffffffffffffffffffffffffffffffffffffffff1673ffffffffffffffffffffffffffffffffffffffff16815260200190815260200160002060009054906101000a900460ff169050919050565b828054600181600116156101000203166002900490600052602060002090601f016020900481019282601f1061084757805160ff1916838001178555610875565b82800160010185558215610875579182015b82811115610874578251825591602001919060010190610859565b5b50905061088291906108a0565b5090565b604051806040016040528060608152602001606081525090565b6108c291905b808211156108be5760008160009055506001016108a6565b5090565b9056fea265627a7a723158206a48c96c90f2153b1c998ce4c21773f5049ae5b40c2a654505fc13182ac2873664736f6c63430005100032",
  "source": "pragma solidity ^0.5.16;\n\ncontract UsersContract {\n\n    struct User {\n        string name;\n        string lastname;\n    }\n\n    mapping(address => User) private users;\n    mapping(address => bool) private joinedUsers;\n    address[] total;\n\n    event onUserJoined(address, string);\n\n    function join(string memory name, string memory lastname) public {\n        require(!userJoines(msg.sender));\n        User storage user = users[msg.sender];\n        user.name = name;\n        user.lastname = lastname;\n        joinedUsers[msg.sender] = true;\n        total.push(msg.sender);\n\n        emit onUserJoined(msg.sender, string(abi.encodePacked(name, \" \", lastname)));\n    }\n\n    function getUser(address addr) public view returns (string memory, string memory) {\n        require(userJoines(msg.sender));\n        User memory user = users[addr];\n        return (user.name, user.lastname);\n    }\n\n    function userJoines(address addr) private view returns (bool) {\n        return joinedUsers[addr];\n    }\n\n    function totalUsers() public view returns (uint) {\n        return total.length;\n    }\n\n}",
  "sourcePath": "/Users/icano/Projects/ethereum-training/ethereum-truffle/contracts/UsersContract.sol",
  "compiler": {
    "name": "solc",
    "version": "0.5.16+commit.9c3226ce.Emscripten.clang"
  },
  "schemaVersion": "3.3.0",
  "updatedAt": "2020-10-20T19:22:06.880Z",
  "networkType": "ethereum",
  "devdoc": {
    "methods": {}
  },
  "userdoc": {
    "methods": {}
  }
}